:020000040800F2
:10000000F0350020A57201084D2E0008AF720108DE
:100010004F2E0008532E0008572E00080000000045
:100020000000000000000000000000005B2E00083F
:100030005D2E000800000000BB720108C1A100088D
:10004000BF720108BF720108BF720108BF720108C8
:10005000BF720108BF720108BF720108BF720108B8
:10006000BF720108BF720108BF720108BF720108A8
:10007000BF720108BF720108BF720108BF72010898
:10008000BF720108BF720108BF720108BF72010888
:10009000BF720108BF720108BF7201085F2E00081D
:1000A000BF720108BF720108BF720108BF72010868
:1000B000BF720108712E0008792E0008BF72010876
:1000C000BF720108BF720108BF720108BF72010848
:1000D000BF720108812E0008892E0008BF72010836
:1000E000BF720108BF720108BF720108BF72010828
:1000F000BF720108BF720108BF720108BF72010818
:10010000BF720108BF720108BF720108BF72010807
:10011000912E0008992E0008BF720108BF720108D5
:10012000BF720108BF720108BF720108BF720108E7
:10013000BF720108BF720108BF720108BF720108D7
:10014000BF720108BF720108BF72010821CE00080A
:10015000BF720108BF720108BF720108A12E00081A
:10016000BF720108BF720108BF720108BF720108A7
:10017000BF720108BF720108BF720108BF72010897
:10018000BF720108BF720108DFF810D01DF040F9FE
:1001900000480047A5010008AFF30080F0350020BB
:1001A00000BFFEE700F0EEF80349087000F090F899
:1001B00001E000F0B3F8FCE71410002010B56A4825
:1001C00040686949086009F0AAFF674948606749C3
:1001D000C8606548406864490968401A6249886097
:1001E00008F030F901200AF0FDFD012008F050F977
:1001F00008F0A4F90DF012FC5D49012006F0E0FCC6
:10020000012006F016FF01F0B2FD09F088FF574902
:10021000086108460069C968401A5449486110BD20
:1002200010B59FED540A06F0B4FA022007F012FF51
:1002300010BD10B504F06DFD4D489FED4F0A05F05F
:10024000DAFF10BD10B509F06AFF484908600A20BE
:1002500002F0CAFB0A2006F041FF0A2008F07FF9ED
:100260000A200DF0FCFB9FED450A05F035FE9FEDE1
:10027000430A05F00CFD0A2002F0E6FC0A2008F013
:1002800001FC09F04CFF394948600846406809689C
:10029000401A3649886010BD10B5142008F036F9B0
:1002A000142002F092FF3249142007F008F810BD24
:1002B00010B50BF075FB322007F0DAFF32200DF09D
:1002C000EAFC10BD10B54FF4FA7008F0DBFF10BD6A
:1002D000002000BF1FE000EB4001294A02EB810132
:1002E00089884FF47A7292FBF1F100EB4002244BC3
:1002F00003EB8202D18000EB40011A4602EB810140
:10030000C988012905DA012100EB400203EB8202D2
:10031000D180411CC8B20728DDD3704770B50024D6
:1003200000BF1EE009F036FF054604EB4400144907
:1003300001EB80008068281A04EB4401104A02EBAC
:100340008101C98888420AD304EB4400114601EBBD
:100350008000856004EB440152F821008047601C56
:10036000C4B2072CDED370BDD0070020DC0700200C
:10037000DE0A00206F12033B0AD7A33B0AD7233CB7
:100380000000002010B54FF480600DF04FFF09F021
:1003900094FE642009F0ECFE08F006FA0BF064FB12
:1003A00003F055FB02F036F809F0B4FC642009F0C4
:1003B000DFFE08F0D1FF0AF0CBF90AF047F90AF0A6
:1003C00061FF0AF096FA1849487008700120887099
:1003D0000BF096F91449C87002F066FD642009F02C
:1003E000C7FE124809F000FF0A2009F0C1FE0F48BD
:1003F0000AF07AF80A2009F0BBFE0BF020FD0BF0A2
:10040000BDFA08F026FD642009F0B2FE06F024FBD8
:100410000DF028F9322009F0ABFE0DF0E5FB04A049
:1004200001F042FF012010BDF700002020A10700CD
:1004300053595320696E6974204F4B21000000000E
:1004400070B505460C462146FE4802F034FD2146B3
:10045000FC4809F078FF70BDFB4890ED010AF8EE0A
:10046000C00A9FEDFA1A80EE810A10EE100AF849D0
:10047000C864F54890ED020AF8EEC00A9FEDF31A41
:1004800080EE810A10EE100A0865EF4890ED030A2D
:10049000F8EEC00A9FEDED1A80EE810A10EE100A08
:1004A0004865E94890ED040AF8EEC00A9FEDE71AA6
:1004B00080EE810A10EE100A8865E34890ED050A87
:1004C000F8EEC00A9FEDE11A80EE810A10EE101AD4
:1004D000DF48C165DC4890ED060AF8EEC00A9FEDE2
:1004E000DB1A80EE810A10EE101AD9480166D64850
:1004F00090ED070AF8EEC00A9FEDD41A80EE810A4B
:1005000010EE100AD2494866CF4890ED080AF8EE7E
:10051000C00A9FEDCE1A80EE810A10EE101ACC4868
:100520008166C94890ED090AF8EEC00A9FEDC71A26
:1005300080EE810A10EE101AC548C166C24890EDDF
:100540000A0AF8EEC00A9FEDC11A80EE810A10EE89
:10055000100ABF490867BC4890ED0B0AF8EEC00AC4
:100560009FEDBA1A80EE810A10EE100A4867B6486D
:1005700090ED0C0AF8EEC00A9FEDB41A80EE810AE5
:1005800010EE100A8867B04890ED0D0AF8EEC00A28
:100590009FEDAE1A80EE810A10EE100AC867AA48D5
:1005A00090ED0E0AF8EEC00A9FEDA81A80EE810ABF
:1005B00010EE101AA648C0F88010A34890ED0F0A5C
:1005C000F8EEC00A9FEDA11A80EE810A10EE101A13
:1005D0009F48C0F884109C4890ED100AF8EEC00ABD
:1005E0009FED9A1A80EE810A10EE100A9849C1F820
:1005F0008800954890ED110AF8EEC00A9FED931A15
:1006000080EE810A10EE101A9148C0F88C108E48C6
:1006100090ED120AF8EEC00A9FED8C1A80EE810A66
:1006200010EE101A8A48C0F89010874890ED130A0F
:10063000F8EEC00A9FED851A80EE810A10EE100ACE
:100640008349C1F89400804890ED140AF8EEC00A7E
:100650009FED7E1A80EE810A10EE100AC1F8980014
:10066000794890ED150AF8EEC00A9FED781A80EEF1
:10067000810A10EE100AC1F89C00734890ED160A2A
:10068000F8EEC00A9FED711A80EE810A10EE100A92
:10069000C1F8A0006C4890ED170AF8EEC00A9FED73
:1006A0006B1A80EE810A10EE100AC1F8A4006648A9
:1006B00090ED180AF8EEC00A9FED641A80EE810AE8
:1006C00010EE100AC1F8A8005F4890ED190AF8EE84
:1006D000C00A9FED5E1A80EE810A10EE100AC1F882
:1006E000AC00594890ED1A0AF8EEC00A9FED571A6F
:1006F00080EE810A10EE100AC1F8B000524890ED69
:100700001B0AF8EEC00A9FED511A80EE810A10EE26
:10071000100AC1F8B4004C4890ED1C0AF8EEC00A6B
:100720009FED4A1A80EE810A10EE100AC1F8B80057
:10073000454890ED1D0AF8EEC00A9FED441A80EE80
:10074000810A10EE100AC1F8BC003F4890ED1E0A65
:10075000F8EEC00A9FED3D1A80EE810A10EE100AF5
:10076000C1F8C000384890ED1F0AF8EEC00A9FEDAE
:10077000371A80EE810A10EE100AC1F8C400324820
:1007800090ED200AF8EEC00A9FED301A80EE810A43
:1007900010EE100AC1F8C8002B4890ED210AF8EEBF
:1007A000C00A9FED2A1A80EE810A10EE100AC1F8E5
:1007B000CC00254890ED220AF8EEC00A9FED231ADE
:1007C00080EE810A10EE100AC1F8D0001E4890EDAC
:1007D000230AF8EEC00A9FED1D1A80EE810A10EE82
:1007E000100AC1F8D400184890ED240AF8EEC00AA7
:1007F0009FED161A80EE810A10EE100AC1F8D8009B
:100800001148D0F8F40010B9002088700AE00E48B2
:10081000D0F8F400012802D10D49887002E00220CE
:100820000B498870084890ED3F0AF8EEC00AB2EE16
:10083000041A80EE810A10EE100A0549C1F8DC00A6
:10084000014807E098090020F407002000007A44DE
:10085000E714002090ED400AF8EEC00AB2EE041A48
:1008600080EE810A10EE100AC1F8E000FE4890ED1B
:10087000410AF8EEC00AB2EE041A80EE810A10EEC8
:10088000100AC1F8E400F84890ED450AB8EEC00A35
:1008900010EE100AC1F8E800F34890ED460AB8EEF1
:1008A000C00A10EE100AC1F8EC00EF4890ED470ABC
:1008B000B8EEC00A10EE100AC1F8F000EA4890ED58
:1008C0003E0AB8EEC00A10EE100AC1F8F400E6487D
:1008D000D0F8200110B90020C87002E00120E349DF
:1008E000C870704770B504460D46642C00DD70BDBD
:1008F000DD4840F82450FFF7AFFDDD48448203F0A7
:100900009BF800BFF3E72DE9FF4105460E460024A2
:10091000AA222146641CD748425405222146641C61
:1009200042542146641C4554E0222146641C425432
:1009300000222146641C42542146641C46549DF802
:1009400009202146641C42549DF808202046611C61
:10095000CCB2C8490A549DF80D202046611CCCB287
:10096000C4490A549DF80C202046611CCCB2C149F0
:100970000A549DF829202046611CCCB2BD490A5476
:100980009DF828202146601CC4B2BA4842549DF804
:100990002D202046611CCCB2B6490A549DF82C206B
:1009A0002046611CCCB2B3490A549DF83120204640
:1009B000611CCCB2AF490A549DF830202046611C1E
:1009C000CCB2AC490A54601F08710027002005E032
:1009D000A849095C3944CFB2411CC8B2A042F7DB38
:1009E0002046611CCCB2A3490F542146A148FFF711
:1009F00027FDBDE8FF812DE9FE4304460D46002694
:100A0000002004E0215C3144CEB2411CC8B2691E12
:100A10008142F7DC601910F8010CB04201D0BDE84A
:100A2000FE832078AA2802D16078AF2800D0F6E7AC
:100A3000A07805287BD1E078E0287AD16079102869
:100A400053D004DC012807D0022853D124E0112818
:100A50004FD0E1284ED141E0A07920B9E0790128BA
:100A600001D185490870A07928B9E079022802D11E
:100A7000012081494870A07928B9E079042802D181
:100A800001207E490870A07928B9E079B02802D108
:100A900001207749C8702EE0A07940B9E079AA28F2
:100AA00005D108F033FA05F0D7FF02F0C5FFA079B1
:100AB00030B9E079AB2803D108F057FB02F0BCFF56
:100AC000A07950B9E079AF2807D108F01FFA05F0F6
:100AD000C3FF08F04AFB02F0AFFF0CE0E079A17918
:100AE00040EA01206249488205E0601D02F02CFBCB
:100AF00001E000E000BF00BFE07BA17B40EA0120F5
:100B0000617B227B41EA0221E27AA37A42EA032254
:100B1000CDE900210290607A277A40EA0723E07944
:100B2000A77940EA07226179AF20FFF7ECFE17E0D2
:100B3000FFE7E078E12813D1A079617940EA012745
:100B4000E0790006217A00EB0140617A00EB012098
:100B5000A17A00EB010841463846FFF7C3FE00BF0B
:100B600000BF5CE710B54648007848B145480078BA
:100B7000801DC1B24448FFF73EFF00204049087085
:100B800010BD1FB5AA208DF800008DF801000020CF
:100B90008DF8020009208DF8030005208DF804006F
:100BA00000208DF8050001208DF8060000208DF84A
:100BB000070010208DF8080001208DF80900902012
:100BC0008DF80A0000208DF80B008DF80C00002431
:100BD00000BF05E01DF800102144CCB2411CC8B292
:100BE0000D28F7DB8DF80D400E216846FFF728FC35
:100BF0001FBD2DE9F0432DED028B83B005460E4657
:100C000017469846B0EE408AF0EE608A0024AA2289
:100C10002146641C1748425405222146641C425454
:100C2000AF222146641C425404222146641C4254D3
:100C300000222146641C42542146641C455421462E
:100C4000641C465401979DF807202046611CCCB2D5
:100C500008490A549DF806202046611CCCB205497B
:100C60000A549DF8052011E0F4070020E714002045
:100C7000840900209809002054290020EC0200205B
:100C80005700002056000020CA0900202046611CA1
:100C9000CCB2FC490A549DF804202046611CCCB219
:100CA000F8490A54CDF804809DF807202046611CBD
:100CB000CCB2F4490A549DF806202046611CCCB2FF
:100CC000F0490A549DF805202046611CCCB2ED493C
:100CD0000A549DF804202046611CCCB2E9490A540C
:100CE000B2EE040A28EE000ABDEEC00A10EE100AA9
:100CF00000B202909DF809202046611CCCB2E14967
:100D00000A549DF808202046611CCCB2DD490A54E3
:100D1000BCEEE80A10EE100A80B200909DF80120A7
:100D20002046611CCCB2D7490A549DF800202046C9
:100D3000611CCCB2D3490A54601F08714FF00009FE
:100D4000002006E0CF49095C494401F0FF09411C3D
:100D5000C8B2A042F6DB2046611CCCB2C94901F8FA
:100D600000902146C748FFF76BFB03B0BDEC028B38
:100D7000BDE8F083F8B505460E460024AA222146B8
:100D8000641CC048425405222146641C4254AF22D0
:100D90002146641C425405222146641C4254002210
:100DA0002146641C425400959DF801202146641C94
:100DB00042549DF800202146641C425400969DF840
:100DC00001202046611CCCB2AE490A549DF8002097
:100DD0002046611CCCB2AB490A54601F0871002741
:100DE000002005E0A749095C3944CFB2411CC8B2D4
:100DF000A042F7DB2046611CCCB2A2490F54214629
:100E0000A048FFF71DFBF8BD7FB50024AA222146AC
:100E1000641C9C48425405222146641C4254AF2263
:100E20002146641C425406222146641C425400227E
:100E30002146641C42549DF801202146641C425402
:100E40009DF800202146641C42549DF80520204650
:100E5000611CCCB28B490A549DF804202146601CC9
:100E6000C4B2884842549DF809202046611CCCB287
:100E700084490A549DF808202046611CCCB281495F
:100E80000A549DF80D202046611CCCB27D490A54BD
:100E90009DF80C202046611CCCB27A490A549DF87A
:100EA00021202046611CCCB276490A549DF82020AE
:100EB0002046611CCCB273490A549DF82520204677
:100EC000611CCCB26F490A549DF824202146601C55
:100ED000C4B26C4842549DF829202046611CCCB213
:100EE00068490A549DF828202046611CCCB2654907
:100EF0000A549DF82D202046611CCCB261490A5449
:100F00009DF82C202046611CCCB25E490A54601F1B
:100F100008710025002005E05A49095C2944CDB23A
:100F2000411CC8B2A042F7DB2046611CCCB2554937
:100F30000D5421465348FFF783FA7FBD7FB5002447
:100F4000AA222146641C4F48425405222146641CB3
:100F50004254AF222146641C425403222146641CA1
:100F6000425400222146641C42549DF8012021462F
:100F7000641C42549DF800202146641C42549DF894
:100F800005202046611CCCB23E490A549DF804203D
:100F90002046611CCCB23B490A549DF809202046EA
:100FA000611CCCB237490A549DF808202046611CC8
:100FB000CCB234490A549DF80D202046611CCCB2B5
:100FC00030490A549DF80C202046611CCCB22D49B2
:100FD0000A549DF821202046611CCCB229490A54AC
:100FE0009DF820202046611CCCB226490A549DF869
:100FF00025202046611CCCB222490A549DF82420A9
:101000002046611CCCB21F490A549DF82920204675
:10101000611CCCB21B490A549DF828202046611C53
:10102000CCB218490A549DF82D202046611CCCB240
:1010300014490A549DF82C202046611CCCB2114959
:101040000A549DF831202146601CC4B20D48425418
:101050009DF830202046611CCCB20A490A549DF804
:1010600035202046611CCCB206490A549DF8342034
:101070002046611CCCB203490A54601F0871002548
:10108000002007E098090020FE49095C2944CDB200
:10109000411CC8B2A042F7DB2046611CCCB2F94922
:1010A0000D542146F748FFF7CBF97FBD37B5002433
:1010B000AA222146641CF348425405222146641C9E
:1010C0004254AF222146641C425407222146641C2C
:1010D000425400222146641C42549DF803202146BC
:1010E000641C42549DF802202146641C42549DF821
:1010F00001202046611CCCB2E2490A549DF8002030
:101100002046611CCCB2DF490A549DF807202046D6
:10111000611CCCB2DB490A549DF806202046611CB4
:10112000CCB2D8490A549DF805202046611CCCB2A7
:10113000D4490A549DF804202046611CCCB2D14900
:101140000A549DF809202046611CCCB2CD490A54AE
:101150009DF808202046611CCCB2CA490A54601F81
:1011600008710025002005E0C649095C2944CDB27C
:10117000411CC8B2A042F7DB2046611CCCB2C14979
:101180000D542146BF48FFF75BF93EBD2DE9F84FEE
:1011900005460E4617469846DDE90AAB0024AA220A
:1011A0002146641CB748425405222146641C42541F
:1011B000AF222146641C425402222146641C425440
:1011C00000222146641C425400959DF801202146CE
:1011D000641C42549DF800202146641C4254009631
:1011E0009DF801202046611CCCB2A6490A549DF806
:1011F00000202046611CCCB2A2490A5400979DF8F9
:1012000001202046611CCCB29E490A549DF8002062
:101210002046611CCCB29B490A54CDF800809DF851
:1012200001202046611CCCB296490A549DF800204A
:101230002046611CCCB293490A54CDF800A09DF819
:1012400001202046611CCCB28E490A549DF8002032
:101250002046611CCCB28B490A54CDF800B09DF8F1
:1012600001202046611CCCB286490A549DF800201A
:101270002146601CC4B2834842540C9800909DF8EB
:1012800001202046611CCCB27E490A549DF8002002
:101290002046611CCCB27B490A540D9800909DF801
:1012A00001202046611CCCB276490A549DF80020EA
:1012B0002046611CCCB273490A540E9800909DF8E8
:1012C00001202046611CCCB26E490A549DF80020D2
:1012D0002046611CCCB26B490A54601F08714FF064
:1012E0000009002006E06749095C494401F0FF0954
:1012F000411CC8B2A042F6DB2046611CCCB2614959
:1013000001F8009021465F48FFF79AF8BDE8F88F92
:1013100038B50024AA222146641C5A4842540522AA
:101320002146641C4254AF222146641C4254F122DF
:101330002146641C425400222146641C42545248F7
:10134000B0F9000000909DF801202146641C4D4832
:1013500042549DF800202146641C42544B48B0F989
:10136000000000909DF801202046611CCCB2454948
:101370000A549DF800202046611CCCB241490A5411
:101380004348B0F9000000909DF801202046611C00
:10139000CCB23C490A549DF800202046611CCCB2D6
:1013A00038490A543B48B0F9000000909DF80120EC
:1013B0002046611CCCB233490A549DF800202046D7
:1013C000611CCCB22F490A54334890ED160ADFED68
:1013D000330A20EE200ABDEEC00A10EE100A00B259
:1013E00000909DF801202046611CCCB225490A548A
:1013F0009DF800202046611CCCB222490A5428489E
:1014000090ED000ADFED250A20EE200ABDEEC00AAD
:1014100010EE100A00B200909DF801202146601CD9
:10142000C4B2184842549DF800202046611CCCB23A
:1014300014490A54601F08710025002005E0114975
:10144000095C2944CDB2411CC8B2A042F7DB20465A
:10145000611CCCB20B490D5421460A48FEF7F0FF3F
:1014600038BD30B52DED048B81B0B0EE408AF0EE82
:10147000608AB0EE419A0024AA222146641C0148E9
:1014800042540FE0980900209400002096000020AC
:10149000980000209A000020542900200000C84233
:1014A0009804002005222146641C4254AF222146A4
:1014B000641C42540B222146641C425400222146E3
:1014C000641C42549FEDFE0A28EE000ABDEEC00ADD
:1014D00010EE100A00B200909DF801202146641C15
:1014E000F84842549DF800202146641C42549FED68
:1014F000F40A28EE800ABDEEC00A10EE100A00B20F
:1015000000909DF801202046611CCCB2ED490A54A0
:101510009DF800202046611CCCB2EA490A549FED98
:10152000E80A29EE000ABDEEC00A10EE100A00B269
:1015300000909DF801202046611CCCB2E1490A547C
:101540009DF800202046611CCCB2DE490A54601F81
:1015500008710025002005E0DA49095C2944CDB274
:10156000411CC8B2A042F7DB2046611CCCB2D54971
:101570000D542146D348FEF763FF01B0BDEC048B48
:1015800030BD2DE9F0412DED048B82B0B0EE408AE4
:10159000F0EE608AB0EE419A05460E4617460024EA
:1015A0000095AA222146641CC648425405222146C1
:1015B000641C4254AF222146641C4254012221463D
:1015C000641C425400222146641C42541FED4D0A03
:1015D00028EE000ABDEEC00A10EE100A00B201901B
:1015E0009DF805202146641CB64842549DF804200D
:1015F0002146641C42541FED570A28EE800ABDEEB6
:10160000C00A10EE100A00B201909DF80520214694
:10161000601CC4B2AB4842549DF804202046611CB3
:10162000CCB2A8490A541FED630A29EE000ABDEEA8
:10163000C00A10EE100A00B201909DF80520204665
:10164000611CCCB29F490A549DF804202046611CBD
:10165000CCB29C490A549DF803202046611CCCB2B0
:1016600098490A549DF802202146601CC4B295484E
:1016700042549DF801202146601CC4B29148425456
:101680009DF800202046611CCCB28E490A542046A9
:10169000611CCCB28B490E542046611CCCB28949E6
:1016A0000F54601F08714FF00008002006E08549C4
:1016B000095C414401F0FF08411CC8B2A042F6DBBE
:1016C0002046611CCCB27F4901F8008021467D484C
:1016D000FEF7B6FE02B0BDEC048BBDE8F0817A489F
:1016E000C06C00EE100ADFED790A20EE200ABDEE94
:1016F000C00A774880ED010A7348006D00EE100AB9
:10170000DFED720A20EE200ABDEEC00A704880EDBF
:10171000020A6D48406D00EE100ADFED6C0A20EE03
:10172000200ABDEEC00A6A4880ED030A6648806D53
:1017300000EE100ADFED650A20EE200ABDEEC00AB9
:10174000634880ED040A6048C06D00EE100ADFEDCA
:101750005F0A20EE200ABDEEC00A5D4880ED050A52
:101760005948006E00EE100ADFED580A20EE200AFC
:10177000BDEEC00A564880ED060A5348406E00EEA2
:10178000100ADFED520A20EE200ABDEEC00A5048D2
:1017900080ED070A4C48806E00EE100ADFED4B0A20
:1017A00020EE200ABDEEC00A494880ED080A4648EE
:1017B000C06E00EE100ADFED450A20EE200ABDEEF5
:1017C000C00A434880ED090A3F48006F00EE100A46
:1017D000DFED3E0A20EE200ABDEEC00A3C4880ED57
:1017E0000A0A3948406F00EE100ADFED380A20EE91
:1017F000200ABDEEC00A364880ED0B0A3248806FE1
:1018000000EE100ADFED310A20EE200ABDEEC00A1C
:101810002F4880ED0C0A2C48C06F00EE100ADFED57
:101820002B0A20EE200ABDEEC00A294880ED0D0AE1
:101830002548D0F8800000EE100ADFED240A20EEE3
:10184000200ABDEEC00A224880ED0E0A1E48D0F8DC
:10185000840000EE100ADFED1D0A20EE200ABDEE26
:10186000C00A1B4880ED0F0A1748D0F8880000EE28
:10187000100ADFED160A20EE200ABDEEC00A144859
:1018800080ED100A1048D0F88C0000EE100ADFED51
:101890000F0A20EE200ABDEEC00A0D4880ED110AA5
:1018A0000948D0F8900000EE100ADFED080A20EE9B
:1018B000200ABDEEC00A064880ED120A024809E07F
:1018C000CDCCCC3D98090020E714002000007A44DC
:1018D000F4070020D0F8940000EE100A5FED050A2E
:1018E00020EE200ABDEEC00AFE4880ED130AFE4835
:1018F000D0F8980000EE100A5FED0C0A20EE200AE6
:10190000BDEEC00AF74880ED140AF748D0F89C00F5
:1019100000EE100A5FED130A20EE200ABDEEC00AA9
:10192000F04880ED150AF048D0F8A00000EE100A4B
:101930005FED1A0A20EE200ABDEEC00AE94880EDEC
:10194000160AE948D0F8A40000EE100A5FED210A5B
:1019500020EE200ABDEEC00AE24880ED170AE248F8
:10196000D0F8A80000EE100A5FED280A20EE200A49
:10197000BDEEC00ADB4880ED180ADB48D0F8AC00A9
:1019800000EE100A5FED2F0A20EE200ABDEEC00A1D
:10199000D44880ED190AD448D0F8B00000EE100AFF
:1019A0005FED360A20EE200ABDEEC00ACD4880ED7C
:1019B0001A0ACD48D0F8B40000EE100A5FED3D0AD7
:1019C00020EE200ABDEEC00AC64880ED1B0AC648BC
:1019D000D0F8B80000EE100A5FED440A20EE200AAD
:1019E000BDEEC00ABF4880ED1C0ABF48D0F8BC005D
:1019F00000EE100A5FED4B0A20EE200ABDEEC00A91
:101A0000B84880ED1D0AB848D0F8C00000EE100AB2
:101A10005FED520A20EE200ABDEEC00AB14880ED0B
:101A20001E0AB148D0F8C40000EE100A5FED590A52
:101A300020EE200ABDEEC00AAA4880ED1F0AAA487F
:101A4000D0F8C80000EE100A5FED600A20EE200A10
:101A5000BDEEC00AA34880ED200AA348D0F8CC0010
:101A600000EE100A5FED670A20EE200ABDEEC00A04
:101A70009C4880ED210A9C48D0F8D00000EE100A66
:101A80005FED6E0A20EE200ABDEEC00A954880ED9B
:101A9000220A9548D0F8D40000EE100A5FED750ACE
:101AA00020EE200ABDEEC00A8E4880ED230A8E4843
:101AB000D0F8D80000EE100A5FED7C0A20EE200A74
:101AC000BDEEC00A874880ED240A8748807820B997
:101AD00000208449C1F8F4000BE083488078012895
:101AE00003D18049C1F8F40003E002207D49C1F828
:101AF000F4007D48D0F8DC0000EE100AF2EE040A93
:101B000020EE200ABDEEC00A764880ED3F0A7648F6
:101B1000D0F8E00000EE100AF2EE040A20EE200AEF
:101B2000BDEEC00A6F4880ED400A6F48D0F8E4006F
:101B300000EE100AF2EE040A20EE200ABDEEC00A02
:101B4000684880ED410A6848D0F8E80000EE100AC5
:101B5000BDEEC00A634880ED450A6348D0F8EC004A
:101B600000EE100ABDEEC00A5E4880ED460A5E48EF
:101B7000D0F8F00000EE100ABDEEC00A594880ED22
:101B8000470A5948D0F8F40000EE100ABDEEC00A2A
:101B9000544880ED3E0A5448C07820B9002051498D
:101BA000C1F8200103E001204E49C1F8200170472F
:101BB00031B582B00024BDF80800642800DD3EBDC8
:101BC000FFF78DFD4748BDF8081050F8210001903F
:101BD000AA222046611CCCB244490A540522204660
:101BE000611CCCB241490A54AF222046611CCCB2E0
:101BF0003E490A54E1222046611CCCB23B490A54BA
:101C000000222046611CCCB238490A549DF80920B4
:101C10002046611CCCB235490A549DF80820204664
:101C2000611CCCB231490A549DF807202046611C42
:101C3000CCB22E490A549DF806202146601CC4B23D
:101C40002A4842549DF805202046611CCCB2274901
:101C50000A549DF804202146601CC4B22348425413
:101C6000601F224908710025002005E01F49095C1A
:101C70002944CDB2411CC8B2A042F7DB2046611C0A
:101C8000CCB21A490D5421461848FEF7D9FB00BFC3
:101C900095E77FB505460024AA222146641C134817
:101CA000425405222146641C4254AF222146641C42
:101CB000425400222146641C42542146641C425472
:101CC0002146641C45549DF805202146641C42545D
:101CD0009DF804202046611CCCB204490A549DF8AA
:101CE000092005E0F4070020E714002098090020EF
:101CF0002146601CC4B2FE4842549DF8082020468C
:101D0000611CCCB2FA490A549DF80D202046611C92
:101D1000CCB2F7490A549DF80C202046611CCCB285
:101D2000F3490A549DF821202046611CCCB2F049A9
:101D30000A549DF820202046611CCCB2EC490A547C
:101D4000601F08710026002005E0E949095C314464
:101D5000CEB2411CC8B2A042F7DB2046611CCCB217
:101D6000E3490E542146E248FEF76AFB7FBD30B5D9
:101D70008BB0E0480088E049098890FBF1F201FB54
:101D80001201DD480088401E814202D10120DB495A
:101D90004871D8480088DA49098890FBF1F201FBC4
:101DA0001201D7480088401E814202D10120D34948
:101DB0008871D0480088D349098890FBF1F201FB73
:101DC0001201D0480088801E814202D10120CB49F7
:101DD000C872C8480088CC49098890FBF1F201FB21
:101DE0001201C9480088401E814202D10120C34926
:101DF0000871C0480088C549098890FBF1F201FBD1
:101E00001201C2480088401E814202D10120BB4914
:101E1000C871B8480088BE49098890FBF1F201FBFF
:101E20001201BB480088801E814202D10120B349C3
:101E30004872B0480088B749098890FBF1F201FB6D
:101E40001201B4480088801E814202D10120AB49B2
:101E50008872A8480088B049098890FBF1F201FB1C
:101E60001201AD480088C01E814202D10120A34961
:101E70000873A0480088A949098890FBF1F201FB8A
:101E80001201A6480088C01E814202D101209B4950
:101E9000487398480088401C80B296490880B0F585
:101EA0007A7F01DD002008809448C07860B100206E
:101EB0009249C8704FF4C87364224FF49671009031
:101EC0000420FFF7E6FE7DE18C48408A4FF6FF7163
:101ED000884208DA8949488AFFF76AFE4FF6FF70A0
:101EE000864948826EE185480079E0B10020834947
:101EF00008718B494A7B8B49D1ED051AFDEEE11A39
:101F000011EE900A8849D1ED391AB0EE611AD1ED7F
:101F1000381AF0EE610AD1ED371AB0EE610A0021ED
:101F2000FFF72FFB4EE17548007BC0B100207349DD
:101F300008737E48D0ED051AF8EEE11AB0EE611A8A
:101F4000D0ED031AF8EEE11AF0EE610AD0ED041AB2
:101F5000F8EEE11AB0EE610AFFF783FA32E1674862
:101F6000C07A28B100206549C872FFF7D1F929E18C
:101F70006248407988B30020604948716C48B0F9E4
:101F800006006B49B1F90420B1F90210694B93EDD9
:101F90000B0ABDEEC00A10EE103A1BB2CDE90131BA
:101FA000CDE90320634890ED0A0ABDEEC00A10EEA9
:101FB000100A00B25F4C009094ED090ABDEEC00A11
:101FC00010EE104A23B25B4CB4F91420B4F912108D
:101FD000B4F91000FFF7DAF8F4E0FFE7474880793A
:101FE000A8B1002045498871524890ED160AF2EEDA
:101FF000040A20EE200ABDEEC00A10EE100A02B25A
:102000004D4801884D480068FFF750F8DAE03B483A
:10201000C079E0B300203949C87100BF15E0012143
:102020008140474A1278114049B1464931F81010B1
:1020300001F2DC5109B207AA22F8101003E00021D6
:1020400007AA22F81010411CC8B20828E7DB0022BA
:10205000BDF82A0080B2BDF8281089B2CDE903028C
:1020600005920291BDF8260080B2BDF8241089B215
:10207000CDE90010BDF81E40A3B2BDF81C40A2B2CD
:10208000BDF82240A1B2BDF82040A0B200E002E0BD
:10209000FEF754FF96E01948407AA8B1002017498E
:1020A0004872009001900290274C0390E488A3B2FC
:1020B000254CA488A2B2244C6488A1B2224C248866
:1020C000A0B2FEF7A1FE7DE00C48807A70B100203E
:1020D0000A4988721D4991ED000ADFED1D0A20EEC4
:1020E000200ABCEEC00A10EE101A33E037E0000000
:1020F000980900205A0000205C000020840900207C
:102100005E000020600000206200002064000020CB
:1021100066000020680000206A0000206C0000209B
:1021200014100020CC1000200C010020801400208E
:10213000EC020020542900205C0300202C03002026
:1021400071000020DE0A002000030020140300209C
:102150000000C84288B20021FEF70CFE32E0A2481F
:10216000407B38B30020A0494873A04890ED021B83
:10217000B0EE410AF0EE610A51EC100B1BF003F8CF
:1021800004469A4890ED041BB0EE410AF0EE610A55
:1021900051EC100B1AF0F7FF0546944A1178944A57
:1021A0005079DFED940A9FED940A23462A46FEF704
:1021B00020FD07E08C48807B20B1FEF7E2FC002088
:1021C00089498873FEF7CEFC00F087FE0BB030BD66
:1021D0008A49097839B9AA2805D10121874A11709D
:1021E000874908705FE085490978012907D1AF2840
:1021F00005D10221814A11708149487053E07F491D
:102200000978022905D103217C4A11707C49887024
:1022100049E07A490978032905D10421774A1170E8
:102220007749C8703FE07549097804290AD105212A
:10223000724A117072490871724908700021724A1D
:10224000117030E06D490978052919D16D49097877
:10225000002915DD6B490978491E6A4A11706A49DF
:102260000978694A1278521C674B1A70491D644AF2
:10227000505464490978B1B90621604A117012E0DE
:102280005E49097806290BD100215C4A11705E492C
:102290000978491D5A4A505401215C4A117002E0E4
:1022A0000021564A117070472DE9F041054600247F
:1022B000AA222146641C5648425405222146641C29
:1022C0004254AF222146641C4254A0222146641C81
:1022D000425400222146641C425400270BE0384639
:1022E000791CCFB22A5C2046611CCCB248490A5402
:1022F000322C00DD02E0E85D0028F0D100BF601F55
:10230000434908710026002005E04149095C314439
:10231000CEB2411CC8B2A042F7DB2046611CCCB251
:102320003B490E5421463A48FEF78AF8BDE8F08151
:102330002DE9F34105460024AA222146641C3448B5
:10234000425405222146641C4254AF222146641C9B
:102350004254A1222146641C425400222146641C9E
:1023600042549DF807202146641C42549DF80620E3
:102370002146641C42549DF805202046611CCCB2C5
:1023800023490A549DF804202046611CCCB2204900
:102390000A5400270BE03846791CCFB22A5C20464D
:1023A000611CCCB21A490A54322C00DD02E0E85D0F
:1023B0000028F0D100BF601F1549087100260020D9
:1023C00005E01349095C3144CEB2411CC8B2A042B9
:1023D000F7DB2046611CCCB20D490E5421460C4857
:1023E000FEF72EF8BDE8FC8184090020E02A0020D9
:1023F000F10000200000E4430000F6426F000020DE
:10240000CA0900206E00002056000020570000205E
:102410009809002010B5FE488078FE4908700846EB
:102420000078022802D10BF0A1FD03E0F948007802
:1024300007F028F810BD002801DC002104E007287F
:1024400001DD072100E0014608460021F24A22F89A
:1024500010107047014600201DE0EF4A32F81020AE
:10246000B2F5FA7F0EDAEC4A32F810200A44EA4B51
:1024700023F8102001228240E84B1B781A43E74BD7
:102480001A7006E001228240E44B1B789343E34A32
:102490001370421CD0B20828DFDB704770B5DDE94D
:1024A00004452BB10E882EB10E8806440E8001E043
:1024B00001260E800E88964202DB2C7000260E80CC
:1024C00070BD7CB50546D6480079022824DCD54885
:1024D000407808BBD4484078B8B1D3480078A0B160
:1024E000D148C07850B1CE48407818B10020CC49CE
:1024F000C87214E00120CA49C87210E00120CB491B
:1025000048720220C649C87209E00120C749C87153
:102510000320C349C87202E00420C149C872C04800
:10252000407B002831D1BE48007B002837D0BC4812
:10253000C07A38B9BA48007BB9494873BCA0FFF7E4
:10254000B3FE2CE00020B64908730846C07A012883
:1025500003D1BAA0FFF7A8FE21E0B148C07A022853
:1025600003D1B6A0FFF7A0FE19E0AD48C07A03285A
:1025700003D1B2A0FFF798FE11E0A948C07A042861
:102580000DD1B2A0FFF790FE09E0A548007B10B97D
:10259000B4A0FFF789FEA248007BA1494873B64862
:1025A000B0F9040010F5967F7DDAB348B0F9060063
:1025B000002803DDB048B0F9060003E0AE48B0F9EA
:1025C0000600404200EE100AB8EEC00AF3EE0E0A12
:1025D000B4EEE00AF1EE10FA14DDA748B0F90200FB
:1025E00000EE100AB8EEC00AFBEE0E0AB4EEE00AE6
:1025F000F1EE10FA06D28A48C07B30B90120884932
:10260000C87302E000208649C8739B48B0F90200F5
:1026100010F5967F12DA9848B0F90000B0F5967F71
:102620000CDD9548B0F9060010F5967F06DA01201A
:102630009249087002207A49C8731BE08E48B0F9AD
:10264000020010F5967F12DA8B48B0F9000010F501
:10265000967F0CDA8848B0F90600B0F5967F06DD63
:1026600001208649087002206D49C87302E00020ED
:102670008249087000246A48407B28B100BF4FF4AB
:102680007A707F49088003E00224C8207C490880D2
:1026900063480C30CDE900407848037878480288D8
:1026A0007849284600E002E0FFF7F8FE08E0002045
:1026B0005B49C8730846007B022801D101200873DA
:1026C0006D48B0F9040010F5AF7F03DD00205449D8
:1026D000887302E00120524988737CBD002005E028
:1026E0000021654A22F81010411CC8B20428F7DB0B
:1026F0006148B0F90400002802DD00205E498880AE
:1027000000205D4908804880C8804548407B48B12A
:102710005D48407918B903204149487502E001201D
:102720003F490872704700B503465848008818446E
:102730005649088008460088B0F5FA7F45DB00203E
:1027400008803648007800F00F000F2802D1344886
:10275000807930B14E480078401C40B24C49087036
:1027600005E04B480078401E40B24949087048488F
:1027700090F9000002280ADB00204549087001207A
:102780002749C8712949C872FFF7A8FF16E04048D9
:1027900090F9000010F1020F10DC00203C49087095
:1027A0001F48C07950B100201D49C8711F49C87227
:1027B0001B48007C10B10220194948753548008833
:1027C0003549088000203349088000BDF0B505ACCC
:1027D00070CC5CB100270F80CF788FB98F7817B19C
:1027E0008F787F1C8F700127CF7009E00027CF7092
:1027F0000F8807440F800F889F4201DD01278F70EB
:102800008F78974202DD357000278F70F0BD000091
:10281000E714002070000020CA0A00207100002088
:10282000141000208E030020F7000020D814002090
:10283000556E6C6F636B204F4B210000556E6C6FB3
:10284000636B204661696C2100000000506F776562
:1028500072204C6F772C556E6C6F636B20466169EC
:102860006C210000204643204F7574707574204C15
:102870006F636B6564212000DE0A00207600002073
:102880007800002074000020F10000208C0000205F
:102890008E000020720000207A0000201EB5044641
:1028A000BD48407B00286ED1BB48807B002873D098
:1028B000BA48B0F9020010F5AF7F17DAB748B0F99F
:1028C0000000B0F5AF7F11DDB448B0F9040010F599
:1028D000AF7F0BDAB148B0F90600B0F5AF7F05DD88
:1028E0000120AF490870AF49087004E00020AC49EE
:1028F0000870AC490870A948B0F90200B0F5AF7F84
:1029000015DDA648B0F90000B0F5AF7F0FDDA34894
:10291000B0F9040010F5AF7F09DAA048B0F906005D
:1029200010F5AF7F03DA01209F49087002E0002014
:102930009D4908709948B0F90200B0F5AF7F15DDE8
:102940009648B0F90000B0F5AF7F0FDD9348B0F9BD
:10295000040010F5AF7F09DA9048B0F90600B0F531
:10296000AF7F03DD01209149087002E000208F490C
:1029700008708A48B0F90200B0F5AF7F04DD01208D
:102980008B49087008E02EE08448B0F90200322834
:1029900002DA00208649087086480121CDE900103E
:1029A000804803784FF47A7283492046FFF776FD1A
:1029B0008048401E0121CDE90010794803784FF48A
:1029C0007A727E492046FFF769FD7D480121784AE9
:1029D00012784FF47A73CDE90021029005227949EB
:1029E0002046FFF7F3FE1EBD10B504466A48007886
:1029F000002871D07448007898BB00203AE001218B
:102A00008140724A12781140B1B1714931F8101009
:102A100009B2A1F2DC5100EE101AB8EEC00AF7EECE
:102A2000040A20EE200ABDEEC00A10EE101A09B208
:102A30005A4A22F8101003E00021584A22F81010D8
:102A4000564931F9101011F5FA7F01DC61490CE0AB
:102A5000524931F91010B1F5FA7F03DD4FF4FA71E4
:102A600003E00AE04D4931F910104C4A22F81010E9
:102A7000411CC8B20828C2DB81E053480078012815
:102A80003FD100203AE001218140504A12781140A4
:102A9000B1B1514931F8101009B2A1F24C4100EE28
:102AA000101AB8EEC00AF7EE040A20EE200ABDEEB6
:102AB000C00A10EE101A09B2384A22F8101003E0CA
:102AC0000021364A22F81010344931F9101011F55E
:102AD000FA7F02DC3F490CE05DE0304931F910102B
:102AE000B1F5FA7F02DD4FF4FA7102E02B4931F9BA
:102AF00010102A4A22F81010411CC8B20828C2DB64
:102B00003DE0002039E001218140304A1278114037
:102B1000B1B1324931F8101009B2A1F5806100EE6F
:102B2000101AB8EEC00ADFED2E0A20EE200ABDEE24
:102B3000C00A10EE101A09B2184A22F8101003E069
:102B40000021164A22F81010144931F9101011F51D
:102B5000FA7F01DC1F490BE0104931F91010B1F583
:102B6000FA7F02DD4FF4FA7102E00C4931F91010DE
:102B70000A4A22F81010411CC8B20828C3DB2046BC
:102B8000FFF79FFC2046FFF789FE2046FFF762FC17
:102B90002046FFF7C8FD10BD14100020DE0A0020FB
:102BA0008700002086000020880000208900002087
:102BB0008A000020552900207C0000207E00002093
:102BC000EC02002082000020700000207100002034
:102BD000E82400200CFEFFFFF8240020D42B002066
:102BE0006666263F014600201AE0874A125C72B9E9
:102BF000864A32F8102042F210739A420BDA834A66
:102C000032F810200A44814B23F8102003E0002200
:102C10007E4B23F8102000227B4B1A54421CD0B26A
:102C20000228E2DB79480088B0F57A7F04DC774837
:102C30004088B0F57A7F03DD0020754AD07102E04C
:102C40000120734AD071704710B504462046FFF743
:102C5000C9FF10BD10B50023002204E0845C1C44B1
:102C6000E3B2541CE2B24C1E9442F7DC421812F854
:102C7000012C9A4200D010BDC278512A38D1427935
:102C800072B98279634C2270C27952B2624C22705E
:102C9000027A52B2614C2270427A614C227027E073
:102CA0004279012A24D182795A4C2270C2791202C7
:102CB00012B2047A22435B4C2280427A120212B290
:102CC000847A2243584C2280C27A120212B2047BC8
:102CD0002243564C2280427B120212B2847B224352
:102CE000534C2280C27C4E4C22700122464C2270F2
:102CF000C278522A14D142794AB9C279847942EA17
:102D000004224C4C228001223F4C627008E0427940
:102D1000012A05D1C279847942EA0422464C2280F4
:102D200000BFA8E710B504464448007838B9AA2C7B
:102D300005D10120414908704148047063E03F48D3
:102D40000078012807D1222C05D102203B490870C8
:102D50003B48447057E039480078022805D10320E9
:102D600036490870364884704DE0344800780328AE
:102D700005D10420314908703148C47043E02F4820
:102D8000007804280AD105202C4908702C480471C9
:102D90002C48047000202C49087034E02748007843
:102DA000052819D127480078002815DD2548007826
:102DB000401E244908702448007823490978491C9A
:102DC000214A1170401D1E490C541E480078D0B98C
:102DD00006201A49087016E01848007806280FD116
:102DE00000201649087018480078401D14490C54FA
:102DF00015480078801DC1B21148FFF72BFF02E093
:102E000000200E49087010BDD6000020D800002018
:102E1000F700002090000020920000209300002086
:102E200091000020940000209600002098000020CF
:102E30009A0000209C0000209E000020DD00002061
:102E4000EE0A0020DC000020D4000020704700BF04
:102E5000FEE700BFFEE700BFFEE77047704710B512
:102E600080200DF0FAFD10B180200DF04CFE10BD59
:102E700010B506F0DCFC10BD10B506F023FE10BD49
:102E800010B50AF07DFD10BD10B507F020FA10BD99
:102E900010B507F08AFB10BD10B507F0DAFA10BDC7
:102EA00010B50BF0A0F910BD10B514F00DFA01200B
:102EB00014F015FA10BD70B5024600200AE0145C4B
:102EC000864B1D781B785B1C844E3370844B5C559D
:102ED000431CD8B28842F2DB70BD10B57F48007841
:102EE0008049097888425BDD7C4800787D49097813
:102EF000401A3F281BDB00207B4908703F207B499C
:102F0000087000200BE077490A780978491C754B56
:102F1000197073498A5C754B411C5A54C8B23F28DA
:102F2000F1DB40227149002015F059FA9FE06E480C
:102F30000078401C6C490870084600786C49097894
:102F40008842F3D1002068490870644800786549D8
:102F50000978401A65490870002015E05F49097832
:102F6000604A1278891A814208DD5E490978014475
:102F70005B4A525C5D4B411C5A5403E000225B4BA0
:102F8000411C5A54411CC8B23F28E7DB5348007823
:102F90005449087040225549002015F020FA66E097
:102FA0004E4800784F490978884260DA4D480078E9
:102FB000C0F580704949097808443F281BDB002090
:102FC000494908703F204949087000200BE04549F5
:102FD0000A780978491C434B197041498A5C434B74
:102FE000411C5A54C8B23F28F1DB40223F4900201F
:102FF00015F0F5F93BE03C480078401C3A49087070
:10300000084600783A490978884230D1002036498C
:103010000870344800784042304909780844334900
:103020000870002018E02F490978C1F580712B4AFB
:1030300012781144814209DD2A4909780144C9B254
:10304000274A525C294B411C5A5403E00022274B6B
:10305000411C5A54411CC8B23F28E4DB1F48007889
:103060002049087040222149002015F0B8F910BD10
:1030700010B50446012C02D0032C11D10EE059B931
:1030800023B1012B05D0022B04D100E000BF40206A
:1030900010BD00BF00BF00BF00BF01E00120F7E787
:1030A00000BF0020F4E72DE9F047064688461446A5
:1030B0009946089F022E02D0032E0CD10AE001256A
:1030C00004E0605DFFF784F8681CC5B22078A84270
:1030D000F7DA00E000BF00BFBDE8F087E0000020A5
:1030E000200B0020DF000020E1000020200C002049
:1030F000DE00002015F066B8704700207047002001
:103100007047002070470020704700207047002063
:103110007047002070470020704700207047002053
:103120007047002070470020704700207047002043
:10313000704715F06EB87047002070470020704748
:1031400014F0B2BE704700000179C27801EB022191
:10315000F94A11808179427901EB0221F74A118005
:103160008178F74A517070470020F649087000BF17
:1031700028E0042818DA9FEDF40AF1492C3101EB1C
:10318000800181ED000A9FEDF00AED49383101EB35
:10319000800181ED000A9FEDEC0AE949443101EB21
:1031A000800181ED000A03E00021E54AA2F85010F9
:1031B0000022E349143141F82020103941F8202041
:1031C000411CC8B20428D4DB704710B50446DC4863
:1031D0004178807881421BD0FFF7C6FFDB48C07979
:1031E00068B9DA48407E012809D1D948807810B9F9
:1031F000D748407918B10120D149087008E0002073
:10320000CF490870D3A0FFF74FF80020CC49487091
:10321000CB484078062878D006DC062876D2DFE84E
:1032200000F075103858B5F6092870D004DC07286E
:103230006ED008286AD179E20A286AD0A028F9D18C
:103240003BE0BF48007818B3C048407D58B9BD483E
:103250000078E8B90120BB490870C2A0FFF724F844
:1032600003F045FC14E0B948407D022806D1C0A017
:10327000FFF71AF80020B249487009E0B348407DD2
:10328000022805DDBEA0FFF70FF80020AC4948700A
:1032900051E3AE48407D022805D1BCA0FFF704F8F9
:1032A00003F034FC08E0A948407D28B9BAA0FEF735
:1032B000FBFF0020A24948703DE3A448407B38B1A1
:1032C000B8A0FEF7F1FF0020A04908739C494870A0
:1032D00031E39A48008800EE100AB8EE400A984898
:1032E00080ED0D0A95480088A0B3934800884FF4FC
:1032F0007A71484300EE100AF8EEC00A8F48008841
:10330000002807DC9FED900A1CE0F6E012E366E27D
:10331000B4E1B9E2A84890ED011A8848008800EEAF
:10332000100AB8EE400AB4EEC01AF1EE10FA03D259
:10333000A14890ED010A05E08048008800EE100ADF
:10334000B8EE400A80EE801ABCEEC10A7C4880EDDF
:10335000070A03E0FFE700217948C1617848C068A7
:1033600018B996A0FEF7A0FF0AE07548C169C068C9
:10337000814205D293A0FEF797FF00207049487064
:103380006F48C06801196E48C160D4E26B4800887C
:10339000404200EE100AB8EEC00A694880ED0D0AFE
:1033A00066480088A0B3644800884FF47A714843A7
:1033B00000EE100AF8EEC00A60480088002802DC1F
:1033C0009FED610A1BE07C4890ED020AB1EE401AC5
:1033D0005A48008800EE100AB8EE400AB4EEC01A4F
:1033E000F1EE10FA05D2744890ED020AB1EE400AEF
:1033F00005E05248008800EE100AB8EE400A80EE60
:10340000801ABCEEC10A4E4880ED070A04E01BE0BA
:10341000FFE700214A48C1614948C06818B96CA05B
:10342000FEF742FF0AE04648C169C068814205D202
:103430006AA0FEF739FF0020414948704048C06843
:1034400001193F48C16076E23C48008800EE100A4E
:10345000B8EE400A3A4880ED0B0A3848008878B345
:10346000354800884FF47A71484300EE100AF8EEB0
:10347000C00A32480088002802DC9FED330A17E0BA
:103480004D4890ED001A2D48008800EE100AB8EE65
:10349000400AB4EEC01AF1EE10FA03D2464890ED9D
:1034A000000A05E02548008800EE100AB8EE400A40
:1034B00080EE801ABCEEC10A214880ED050A03E0C7
:1034C000FFE700201E4948611D48406818B946A022
:1034D000FEF7EAFE0BE01A4840691949496888423C
:1034E00005D244A0FEF7E0FE0020154948701448BC
:1034F00040682044124948601DE21048008840425C
:1035000000EE100AB8EEC00A0D4880ED0B0A0B4819
:10351000008878B1084800884FF47A71484300EE7B
:10352000100AF8EEC00A0548008800286ADC9FED02
:10353000060A7FE086E065E0EC000020EE00002057
:10354000800F0020F0000020000000001410002078
:10355000F100002046432053746174652045727267
:103560006F72210054616B65206F66662100000058
:1035700054616B65206F6666204F4B210000000090
:10358000434D44204572726F722100004C616E649D
:10359000696E6721000000004C616E64696E6720EF
:1035A0004F4B2100456D657267656E6379207374BA
:1035B0006F70204F4B21000034100020476F2075A2
:1035C00070210000476F207570204F4B21000000D4
:1035D000476F20646F776E2100000000476F206402
:1035E0006F776E204F4B2100476F206168656164E3
:1035F00021000000476F206168656164204F4B2106
:1036000000000000E54890ED001AE548008800EE53
:10361000100AB8EE400AB4EEC01AF1EE10FA03D266
:10362000DE4890ED000A05E0DD48008800EE100A53
:10363000B8EE400A80EE801ABCEEC10AD94880ED8F
:10364000050A02E00020D7494861D648406818B909
:10365000D5A0FEF729FE0BE0D2484069D149496860
:10366000884205D2D3A0FEF71FFE0020CD49487046
:10367000CC4840682044CB4948605CE1C848008899
:1036800000EE100AB8EE400AC64880ED0C0AC448A5
:10369000008878B3CA4800884FF47A71484300EE36
:1036A000100AF8EEC00ABE480088002802DC1FEDB0
:1036B0005A0A17E0B94890ED001AB948008800EEA0
:1036C000100AB8EE400AB4EEC01AF1EE10FA03D2B6
:1036D000B24890ED000A05E0B148008800EE100AFB
:1036E000B8EE400A80EE801ABCEEC10AAD4880ED0B
:1036F000060A03E0FFE70021AA488161A948806823
:1037000018B9B0A0FEF7D0FD0AE0A648816980682C
:10371000814205D2AEA0FEF7C7FD0020A149487046
:10372000A048806801199F48816004E19C48008896
:10373000404200EE100AB8EEC00A9A4880ED0C0A2A
:103740009748008878B39E4800884FF47A714843C0
:1037500000EE100AF8EEC00A91480088002802DC4A
:103760001FED870A17E08D4890ED001A8C480088FD
:1037700000EE100AB8EE400AB4EEC01AF1EE10FAEC
:1037800003D2864890ED000A05E08548008800EEE7
:10379000100AB8EE400A80EE801ABCEEC10A8148D9
:1037A00080ED060A03E0FFE700217E4881617D4845
:1037B000806818B989A0FEF777FD0AE07948816929
:1037C0008068814205D288A0FEF76EFD0020754911
:1037D000487074488068011972488160ABE0704895
:1037E000008800B26F49A1F850006D48008878B396
:1037F000734800884FF47A71484300EE100AF8EEDF
:10380000C00A67480088002802DC1FEDB10A17E0F3
:10381000624890ED031A6248008800EE100AB8EE84
:10382000400AB4EEC01AF1EE10FA03D25B4890EDF4
:10383000030A05E05A48008800EE100AB8EE400A74
:1038400080EE801ABCEEC10A564880ED080A03E0FB
:10385000FFE70021534801625248006918B966A089
:10386000FEF722FD0AE04F48016A0069814205D255
:1038700064A0FEF719FD00204A49487049480069D4
:1038800001194848016156E045480088404200B2AD
:103890004449A1F850004248008878B3484800885D
:1038A0004FF47A71484300EE100AF8EEC00A3C4823
:1038B0000088002802DC1FEDDC0A17E0374890ED95
:1038C000031A3748008800EE100AB8EE400AB4EE3A
:1038D000C01AF1EE10FA03D2304890ED030A05E069
:1038E0002F48008800EE100AB8EE400A80EE801AD9
:1038F000BCEEC10A2B4880ED080A03E0FFE7002177
:10390000284801622748006918B942A0FEF7CCFC9C
:103910000AE02448016A0069814205D240A0FEF70E
:10392000C3FC00201F4948701E48006901191D484A
:10393000016100E000BF00BF1A48407808B9FFF7F6
:1039400013FC1848417881703948407BB0B1154A62
:103950003832A2F1140101F1080000F0C2FC114A52
:1039600044323449A2F10C0000F09CFC0D4890ED6B
:103970000D0A80ED100A80ED130A0DE02D48343851
:1039800090ED0D0A074880ED090A2A48343890ED79
:103990000E0A044880ED0A0A10BD00003410002011
:1039A000EE000020800F0020476F206261636B21D2
:1039B00000000000476F206261636B204F4B2100C5
:1039C000EC000020476F206C656674210000000049
:1039D000476F206C656674204F4B2100476F207243
:1039E0006967687421000000476F20726967687416
:1039F000204F4B21000000005475726E206C6566EC
:103A0000742100005475726E206C656674204F4BF3
:103A1000210000005475726E20726967687421007D
:103A20005475726E207269676874204F4B210000D4
:103A300014100020400100200748407B08B90120F5
:103A400000E000200549087001204870704710B55B
:103A500005F005FC10BD0000141000208E030020AE
:103A600090ED031AB5EEC01AF1EE10FA20DD90EDDC
:103A7000051AD0ED031AF1EE611AB4EEE11AF1EE77
:103A800010FA04D890ED031AB1EE411A0DE090ED52
:103A9000051AD0ED031AB4EEE11AF1EE10FA02DDC8
:103AA00090ED031A01E090ED051AF0EE410A01E0F5
:103AB000D0ED050A90ED001A31EE201A80ED061ABD
:103AC00090ED011AD0ED061A31EE611AD0ED021A0E
:103AD00021EE211A80ED041A90ED051AD0ED041A9A
:103AE00001EE801A80ED051A7047D0ED000A90EDC6
:103AF000041A30EE811AD0ED050A41EE000AC0ED3D
:103B0000050AD0ED010A90ED051A70EEC10A90ED9C
:103B1000021A60EE810AC0ED040AD0ED030AF5EE48
:103B2000C00AF1EE10FA1FDDD0ED040A90ED031A81
:103B3000B1EE411AF4EEC10AF1EE10FA04D8D0ED5C
:103B4000030AF1EE600A0DE0D0ED040A90ED031ACD
:103B5000F4EEC10AF1EE10FA02DDD0ED030A01E045
:103B6000D0ED040AC0ED040A7047F0EE401A9FED54
:103B7000FC2A20EE822A22EE212AB7EE003AC3EE7A
:103B8000022AB7EE002A32EE822AB7EE003AC3EEDE
:103B9000022A90ED002A31EE423A90ED002A02EE20
:103BA000832A80ED002AB5EEC01AF1EE10FA02DD8C
:103BB000B0EE412A01E0B1EE412AB0EE420A90EDAA
:103BC000002AF1EE402AB4EEE22AF1EE10FA02D811
:103BD000B1EE402A0BE090ED002AB4EEC02AF1EEDF
:103BE00010FA02DDB0EE402A01E090ED002A80EDEF
:103BF000012A7047F0EE401A9FEDD92A20EE822A62
:103C000022EE212AB7EE003AC3EE022AB7EE002ACE
:103C100032EE822AB7EE003AC3EE022A90ED002A75
:103C200031EE423A90ED002A02EE832A80ED002A1E
:103C300090ED002AB5EEC02AF1EE10FA02DD90ED0B
:103C4000002A03E090ED002AB1EE422AB0EE420ACB
:103C5000B1EE402AB4EEC21AF1EE10FA02D8B1EE7B
:103C6000402A09E0B4EEC01AF1EE10FA02DDB0EE1F
:103C7000402A01E0B0EE412A80ED012A7047F0EEC3
:103C8000401A9FEDB72A20EE822A22EE212AB7EEB3
:103C9000003AC3EE022AB7EE002A32EE822AB7EECD
:103CA000003AC3EE022A90ED002A31EE423A90ED3E
:103CB000002A02EE832A80ED002AB5EEC01AF1EE4A
:103CC00010FA02DDB0EE412A01E0B1EE412AB0EE79
:103CD000420A90ED002AF1EE402AB4EEE22AF1EE1B
:103CE00010FA02D8B1EE402A0BE090ED002AB4EEB3
:103CF000C02AF1EE10FA02DDB0EE402A01E090EDAC
:103D0000002A80ED002A80ED012A70472DE9F84F46
:103D100004460D46DDF828804FF001094FF0000AF7
:103D20000126B346CDF800B00127DFED8E0AB0EED4
:103D3000600A00208446D2F808B0C2F80CB092F8AD
:103D400000B00BF1010B0BF0FF0B82F800B0AB459C
:103D500002DB834682F800B092F800B044F82B8072
:103D6000D2F80CB0A8EB0B0B00EE90BAB8EEE01A4C
:103D700000EE903AF8EE600AC1EE201AB0EE610A49
:103D8000B5EEC00AF1EE10FA02DDF0EE400A01E0F5
:103D9000F1EE400AB7EE001AF4EEC10AF1EE10FAA5
:103DA0002BD2B5EEC00AF1EE10FA02DDB0EE401AE9
:103DB00001E0B1EE401A00EE903AF8EE600A61EED2
:103DC000200AB0EE001AF4EEC10AF1EE10FA04D2A5
:103DD000DFED640AB0EE600A0FE0B5EEC00AF1EE66
:103DE00010FA02DD4FF0010B01E04FF0FF3B00EE57
:103DF00090BAF8EEE00AB0EE600AD06800BF002189
:103E00000DE054F821B0ABEB000B54F821E0AEEB21
:103E1000000E0BFB0ECC01F1010B0FFA8BF1A94246
:103E2000EFDBD2F804B0ACEB0B0BBBF1000F11DDF4
:103E3000B9F1000F03D14FF0000BCDF800B04FF0F7
:103E40000109012F02D14FF0FF3B01E04FF0010BC0
:103E50005F4607E04FF000099E4203DA06F1010BCE
:103E60000BF0FF06C2F804C04FF0000C00EE900A01
:103E7000B8EEE01A00EE907AF8EEE00A00EE801A52
:103E8000FDEEC10A10EE900A0AF1010B0BF0FF0BD8
:103E9000DA469B4502DDE346CDF800B0022E03DB97
:103EA0004FF0000BCDF800B0DDF800B0BBF1010F12
:103EB000A5D09060D2E902BEABEB0E0BC2F810B0F9
:103EC000BDE8F88F70B505460C461678761CF6B23C
:103ED0001670A64201DB00261670167805EB8606E2
:103EE00086ED000A002009E005EB800696ED001A39
:103EF00003EB800686ED001A461CF0B2A042F3DB0D
:103F0000002029E0002121E003EB810696ED001A54
:103F10004E1C03EB8606D6ED001AB4EEE11AF1EE64
:103F200010FA11DD4E1C03EB8606D6ED000A03EBFA
:103F3000810696ED001A4E1C03EB860686ED001AEC
:103F400003EB8106C6ED000A4E1CF1B2661E361A5E
:103F50008E42D9DC461CF0B2661E8642D2DC70BDB1
:103F6000C3F5C8400000000030B50C4615886D1C34
:103F7000ADB21580A54201DB00251580158800EB48
:103F80008505D5ED000A158800EB850585ED000A4D
:103F900070EE601A01EE104AB8EE412A81EE821AE4
:103FA000D3ED001A31EE211A83ED001A93ED001AB9
:103FB000D3ED001A70EE611ABFEE002AF4EEC21AB9
:103FC000F1EE10FA02D8FFEE001A11E0D3ED001A5C
:103FD00070EE611AB7EE002AF4EEC21AF1EE10FA92
:103FE00002DDF7EE001A03E0D3ED001A70EE611A5D
:103FF0009FEDA82A02EE211A83ED001A30BD5FED75
:10400000281A60EE211A21EEA02AF7EE002AC2EE4D
:10401000821AB7EE002A71EE821AF7EE002A82EEBB
:10402000A12AD0ED001A71EE612AD0ED001A42EEFD
:10403000221AC0ED001A704770B52DED0A8BB0EE54
:10404000408AF0EE608AB0EE419AF0EE619A044642
:1040500094ED001BB0EE410AF0EE610A53EC102B18
:1040600051EC190B19F006F841EC1B0B1FED440A3B
:1040700028EE000A20EE280AB7EE001AC1EE000A68
:10408000B7EE000A30EE800AF7EE000A80EE801AE2
:1040900011EE105A284619F095F841EC1C0B53EC20
:1040A0001B2B18F0EDFF41EC1A0B94ED001BB0EE4A
:1040B000410AF0EE610A53EC102B18F03AFFC4E904
:1040C0000001BDEC0A8B70BD90ED001A30EEC11AF4
:1040D000B4EEC01AF1EE10FA06DD90ED001A31EEE2
:1040E000001A80ED001A13E090ED001A30EEC11AAC
:1040F000F1EE401AB4EEE11AF1EE10FA06D290EDAC
:10410000001A31EE401A80ED001A01E0C0ED000AFD
:104110007047B0EE402A1FED6E0A20EE800A20EEB6
:10412000020AB7EE003AC3EE002AB7EE000A32EEFA
:10413000800AB7EE003AC3EE002A90ED000A31EE95
:10414000403A90ED000A02EE830A80ED000A90EDFD
:10415000000AF1EE612AB4EEE20AF1EE10FA02D89A
:10416000B1EE610A0BE090ED000AB4EEE10AF1EE67
:1041700010FA02DDB0EE610A01E090ED000A80ED78
:10418000000A90ED000A31EE400A704770B504460F
:104190000D461646D4ED020A60EEA00A94ED011A0F
:1041A000D4ED011A41EE210AB0EE600A00F046FF9C
:1041B000394880ED000AD4ED020A60EEA00A94EDC1
:1041C000001AD4ED001A41EE210AB0EE600A00F0A8
:1041D00035FF324880ED000A94ED020AB5EEC00AC0
:1041E000F1EE10FA02D24FF0FF3000E001202C492E
:1041F000087095ED000A2848D0ED000A60EE200A0C
:1042000094ED001A084690F9000000EE100AB8EE8E
:10421000C00A21EE000A95ED021A40EE410AC6EDF1
:10422000000A084690F9000000EE100AB8EEC00A35
:104230001A48D0ED000A20EE200AD5ED010A20EE42
:10424000200AD4ED010A95ED021A00EEC10A86EDAE
:10425000010A94ED000AD5ED000A20EE200AD4ED03
:10426000010A95ED011A00EE810AD4ED020A95EDDE
:10427000021A00EE810A86ED020A70BD70B504468E
:104280000D461646324629462046FFF77FFF70BD91
:1042900070470000ACC5273704010020080100204A
:1042A0000001002090ED000AD1ED000A20EE200A66
:1042B000D0ED010A91ED011A00EE810A82ED000AAB
:1042C00090ED000AD1ED010AF1EE600A20EE200A1D
:1042D000D0ED010A91ED001A00EE810A82ED010A8B
:1042E000704790ED000AD1ED000A20EE200AD0EDD3
:1042F000010A91ED011AB1EE411A00EE810A82ED38
:10430000000A90ED000AD1ED010A20EE200AD0ED5E
:10431000010A91ED001A00EE810A82ED010A704750
:1043200030B502460B46002022E0DFEDFE0AB0EE7B
:10433000600A002114E000EB4004FB4D05EB84040F
:1043400004EB810494ED001A02EB8104D4ED001A11
:10435000F0EE400A41EE810AB0EE600A4C1CE1B278
:104360000329E8DB03EB800181ED000A411CC8B2A0
:104370000328DADB30BD2DE9F0412DED088B86B046
:10438000F0EE409A0546884617461E46149C94ED6A
:10439000000AD4ED010A20EE200AE44880ED000A6C
:1043A00094ED000AD4ED020A20EE200AE04880EDE8
:1043B000000A94ED010A20EE000ADE4880ED000AB2
:1043C00094ED010AD4ED030A20EE200ADA4880EDCC
:1043D000000A94ED020A20EE000AD84880ED000A97
:1043E00094ED020AD4ED030A20EE200AD44880EDB1
:1043F000000A94ED030A20EE000AD24880ED000A7C
:1044000094ED010AD4ED020A20EE200ACE4880ED98
:10441000000A94ED000AD4ED030A20EE200ACB48EE
:1044200080ED000A287DE0B300203FE0002100EE8F
:10443000101A00BF18E001EB4102BB4B03EB8202F4
:1044400002EB800292ED001A04F17C0202EB810281
:10445000D2ED001AF8EEC00A41EE810AFDEEE00A44
:10446000B0EE600A4A1CD1B20329E4DBF8EEC00AC0
:1044700004F1880101EB8001C1ED000A57F820101A
:1044800000EE901AF8EEE00A04F1880101EB8001D9
:1044900091ED001A70EEC10A04F1940101EB800164
:1044A00000E006E0C1ED000A411CC8B20328BDDBF4
:1044B00011E000200DE057F8201000EE101AB8EEC1
:1044C000C00A04F1940101EB800181ED000A411C56
:1044D000C8B20328EFDBD4ED250A60EEA00A94ED04
:1044E000261AD4ED261A41EE210A94ED271AD4EDAE
:1044F000271A41EE210AB0EE600A00F079FDF0EED5
:10450000408AF5EEC08AF1EE10FA02D19FED850ADD
:1045100003E0F7EE000A80EEA80AB0EE40AA002001
:104520000EE004F1940101EB800191ED000A20EE10
:10453000280A03A901EB800181ED000A411CC8B2E1
:104540000328EEDB7D4890ED000AF0EE000A20EE35
:10455000200A7C48D0ED000AB0EE001A01EE200AD5
:10456000F7EE000A30EEC00A84ED040A6E4880EDD2
:10457000000A754890ED000AF0EE000A20EE200ACD
:104580007248D0ED000AB0EE001A01EE600A84ED28
:10459000050A654880ED010A674890ED000AF0EED3
:1045A000000A20EE200A6248D0ED000AB0EE001AA0
:1045B00001EE200A84ED060A5B4880ED020A62489B
:1045C00090ED000AF0EE000A20EE200A5F48D0EDE0
:1045D000000AB0EE001A01EE200A84ED070A5248E4
:1045E00080ED030A534890ED000AF0EE000A20EE39
:1045F000200A5448D0ED000AB0EE001A01EE200A5D
:10460000F7EE000A30EEC00A84ED080A464880ED55
:10461000040A4B4890ED000AF0EE000A20EE200A52
:104620004248D0ED000AB0EE001A01EE600A84EDB7
:10463000090A3D4880ED050A3F4890ED000AF0EE7A
:10464000000A20EE200A3A48D0ED000AB0EE001A27
:1046500001EE600A84ED0A0A334880ED060A384804
:1046600090ED000AF0EE000A20EE200A2F48D0ED6F
:10467000000AB0EE001A01EE200A84ED0B0A2A4867
:1046800080ED070A2B4890ED000AF0EE000A20EEBC
:10469000200A2A48D0ED000AB0EE001A01EE200AE6
:1046A000F7EE000A30EEC00A84ED0C0A1E4880EDD9
:1046B000080AD0ED000A60EEA00A90ED031AD0EDD2
:1046C000031A41EE210AB0EE600A00F091FCB0EE50
:1046D000409A1548D0ED000AB0EE490A20EE800A53
:1046E00084ED0D0AD0ED030AB0EE490A20EE800AEF
:1046F00084ED0E0A002035E057F8201000EE101A65
:10470000B8EEC00A04F1280101EB8001D1ED000AE6
:104710009FED0F1A01EE600ABDEEC00AB8EEC00AA6
:1047200018E000000000000044100020F401002008
:10473000F8010020FC0100200002002004020020FB
:10474000080200200C0200201002002014020020A9
:104750000040754404F1400101EB800181ED000A45
:10476000411CC8B20328C7DB002029E0002100EE6D
:10477000101A00BF18E000EB4002F84B03EB820276
:1047800002EB810292ED001A04F1400202EB810279
:10479000D2ED001AF8EEC00A41EE810AFDEEE00A01
:1047A000B0EE600A4A1CD1B20329E4DBF8EEC00A7D
:1047B00004F14C0101EB8001C1ED000A411CC8B2BB
:1047C0000328D3DB04F15802E54904F14C00FFF75C
:1047D00069FD9DED040AD4ED0C0A20EE200AD4ED0B
:1047E0000B0A9DED051A00EEC10ADE4880ED000AB5
:1047F0009DED030AD4ED0C0A20EE200AD4ED0A0A3E
:104800009DED051A10EE810A80ED010A9DED040A66
:10481000D4ED0A0A20EE200AD4ED0B0A9DED031A0E
:1048200010EE810A80ED020A00200CE036F910102B
:1048300000EE101AB8EEC00ACB4901EB800181ED01
:10484000000A411CC8B20328F0DB308818B9708810
:1048500008B9B088E8B304F16401C348FFF760FD0C
:10486000D4ED190A60EEA00A94ED1A1AD4ED1A1AC2
:1048700041EE210AB0EE600A00F0BAFBF0EE40AA69
:1048800094ED190A20EE2A0AB84880ED020A94ED48
:104890001A0A20EE2A0A80ED030A0146083000F0C9
:1048A000AFFEB34880ED000AB04901F1080000F006
:1048B000B4FEB04880ED000A90ED000AB5EEC00AE3
:1048C000F1EE10FA26D2AA4890ED000ADFEDAA0A0E
:1048D00000E020E0B4EEE00AF1EE10FA01DD012084
:1048E0000DE0A34890ED000ADFEDA40AB4EEE00A63
:1048F000F1EE10FA02D24FF0FF3000E0002000EE9F
:10490000100AB8EEC00AF7EE000A20EE200A984816
:1049100080ED000A00BF00207CE09FED990AB4EE14
:10492000C0AAF1EE10FA06DC9FED960AB4EEC0AA1A
:10493000F1EE10FA08D21FED850A8A4981ED020ACC
:1049400081ED010A81ED000A8F4901EB800191EDB3
:10495000000A844901EB8001D1ED000A9FED8B1A1A
:10496000F4EEC10AF1EE10FA02D8DFED880A13E086
:104970007C4901EB8001D1ED000A9FED851AF4EE30
:10498000C10AF1EE10FA02DDDFED810A04E075499B
:1049900001EB8001D1ED000A60EEA90A7D4991ED9D
:1049A000001A00EE810A784901EB800181ED000ACE
:1049B0006C4901EB800191ED000A734901EB800124
:1049C000D1ED000A70EE200A08EB800191ED000A9B
:1049D000714991ED001A00EE810A04F1280101EB02
:1049E0008001D1ED000A624991ED001A60EE810A62
:1049F0006A4991ED001A00EE810A20EE290AF0EED4
:104A0000000A80EE201A694601EB800181ED001A50
:104A1000411CC8B2032880DB94ED000AD4ED010AE2
:104A20009DED001A00EEC10AD4ED020A9DED011AB7
:104A300000EEC10AD4ED030A9DED021A00EEC10A90
:104A400084ED000A94ED010AD4ED000A9DED001AF0
:104A500000EE810AD4ED020A9DED021A00EE810AF1
:104A6000D4ED030A9DED011A00EEC10A84ED010A9E
:104A700094ED000ADDED010A20EE200AD4ED010AD2
:104A80009DED021A00EEC10AD4ED020A30EE200AB2
:104A9000D4ED030A9DED001A00EE810A84ED020AAE
:104AA00094ED000ADDED020A20EE200AD4ED010AA1
:104AB0009DED011A00EE810AD4ED020A9DED001A67
:104AC00000EEC10AD4ED030A30EE200A84ED030A99
:104AD000D4ED000A60EEA00A94ED011AD4ED011A9B
:104AE00041EE210A94ED021AD4ED021A41EE210A98
:104AF00094ED031AD4ED031A41EE210AB0EE600AD8
:104B000000F076FAB0EE408AD4ED000AB0EE480A22
:104B100020EE800A84ED000AD4ED010AB0EE480AC6
:104B200020EE800A84ED010AD4ED020AB0EE480AB4
:104B300020EE800A84ED020AD4ED030AB0EE480AA2
:104B400020EE800A84ED030AE87C58BB9FED140A2E
:104B5000124880ED000A0020687458E044100020DC
:104B6000400100206810002080100020400200203A
:104B7000180200201C020020BD378635BD3786B5DF
:104B8000008084440000614474100020CDCCCCBD72
:104B9000CDCCCC3D58020020540200205C02002005
:104BA00000000000FFE7687C60B3B2EE040A9E4894
:104BB00080ED000A9D4890ED000AB5EEC00AF1EEC6
:104BC00010FA24D090ED000AB5EEC00AF1EE10FA0A
:104BD00002DD90ED000A04E0944890ED000AB1EE89
:104BE000400A10EE101A084618F0ECFA41EC1B0BC4
:104BF0009FED8F0B53EC102B18F0F8FA07D2002022
:104C0000687404E095ED020A874880ED000AA87CEC
:104C100028B91FED1D0A884880ED000A74E0287C41
:104C200050B995ED000A844880ED000A95ED010A1F
:104C3000824880ED000A67E0B2EE040A7E4880ED0B
:104C4000000A1FED290A7D4880ED000A7C4890ED9E
:104C5000000AB5EEC00AF1EE10FA02DD90ED000A8E
:104C600004E0774890ED000AB1EE400A7448D0EDB8
:104C7000010AF5EEC00AF1EE10FA02DDD0ED010AEC
:104C800004E06F48D0ED010AF1EE600A30EE200A30
:104C90006C4880ED000A90ED000AB5EEC00AF1EE16
:104CA00010FA02D81FED420A0FE0664890ED000AA4
:104CB000F7EE000AB4EEE00AF1EE10FA02DDB7EE0C
:104CC000000A02E05F4890ED000A5E4880ED000AAD
:104CD00090ED000ADFED5C0AB4EEE00AF1EE10FAA6
:104CE0000FD2687C68B959480088801C57490880F1
:104CF00008460088B0F5C87F06DD002008802874CB
:104D000002E000205149088006B0BDEC088BBDE8E8
:104D1000F08110B52DED028B4D48D0ED060A90EDD7
:104D2000061AB7EE000A00EEC10AB5EEC00AF1EEAF
:104D300010FA02D81FED660A1BE04548D0ED060ABE
:104D400090ED061AB7EE000A00EEC10AF7EE000A6F
:104D5000B4EEE00AF1EE10FA02DDB7EE000A08E068
:104D60003B48D0ED060A90ED061AB7EE000A00EEB9
:104D7000C10A384880ED000A374890ED0C0AB5EEBC
:104D8000C00AF1EE10FA02DD90ED0C0A04E03248A0
:104D900090ED0C0AB1EE400ADFED2B0AB4EEE00A0A
:104DA000F1EE10FA3CDD2B4890ED000A00F046F9D8
:104DB000B0EE408A2648D0ED060AB0EE600AF0EE6A
:104DC000480A00F05AF8DFED250A20EE200A2248B2
:104DD00080ED380A1E4890ED081AF0EE410A90ED79
:104DE000071AB0EE410A00F048F8DFED1C0A20EE89
:104DF000200A194880ED370A154890ED001AF0EEA8
:104E0000410A90ED031AB0EE410A00F036F8B1EE17
:104E1000400ADFED120A20EE200A0F4880ED390A21
:104E2000BDEC028B10BD00005C02002018020020C7
:104E30007B14AE47E17A943F5402002058020020D0
:104E40006810002020020020CDCC4C3D2402002020
:104E500044100020500200200C0100203333654232
:104E6000F0EE400AF5EEC00AF1EE10FA02DBB0EE09
:104E7000600A7047B1EE600AFBE700B5B0EE403A59
:104E8000B0EE602AB5EEC03AF1EE10FA07D1B5EEF9
:104E9000C02AF1EE10FA02D19FEDFC1A99E0B0EEB3
:104EA000430AFFF7DDFFF0EE403AB0EE420AFFF7AB
:104EB000D7FFF0EE402AF4EEE23AF1EE10FA02D219
:104EC00083EEA24A01E082EEA34A9FEDF10AB4EE1E
:104ED000C04AF1EE10FA02D2F0EE441A2DE0DFEDF6
:104EE000ED0AB6EE000A14EE200AF0EE404ABDEEDE
:104EF000E40A10EE100A00EE100AB8EEC00A34EE12
:104F0000C00AF0EE404AE44901EB800191ED000A4D
:104F1000F0EE401AE04A411C02EB810191ED000ADB
:104F2000114601EB8001D1ED000A70EE600AB0EE8F
:104F3000610A00EEA40AF0EE401AF4EEE32AF1EE64
:104F400010FA20DDB5EEC02AF1EE10FA0ADBB5EE5C
:104F5000C03AF1EE10FA02DBB0EE611A39E0B1EEC0
:104F6000611A36E09FEDCD1AB5EEC03AF1EE10FAB7
:104F700004DB31EE610AB0EE401A2AE031EEC10ADC
:104F8000B0EE401A25E0B5EEC03AF1EE10FA10DBB3
:104F90009FEDC31AB5EEC02AF1EE10FA04DB31EE34
:104FA000610AB0EE401A14E031EE210AB0EE401A68
:104FB0000FE09FEDBC1AB5EEC02AF1EE10FA04DB4B
:104FC00031EE210AB0EE401A03E031EE610AB0EE94
:104FD000401AB0EE410A00BD00B5B0EE405AF0EE06
:104FE000605AF0EE450AB0EE650AFFF746FF00BDD5
:104FF000F0EE400AF6EE001A60EEA11AB0EE611A69
:10500000B0EE600A10EE100AA749A1EB600000EEB6
:10501000100A21EE002AF7EE081A42EE401A61EE5D
:10502000801AB0EE610A21EE002AF7EE081A42EE6D
:10503000401A61EE801AB0EE610A704700B5F0EEDA
:10504000402AB0EE620AFFF7D3FF20EE220A00BD2D
:1050500010B52DED0A8BB0EE409AF0EE609A9FED00
:10506000930B53EC102B51EC190B18F0BFF818D21E
:105070009FED900B53EC102B51EC190B18F000F82E
:1050800041EC1B0B9FED8D0B53EC102B17F051FFD8
:1050900041EC1A0B53EC192B17F0F2FF41EC180BF3
:1050A00017E09FED840B53EC102B51EC190B17F00C
:1050B000E7FF41EC1B0B9FED810B53EC102B17F01E
:1050C000DCFF41EC1A0B53EC192B17F0D9FF41EC24
:1050D000180B9FED760B53EC102B51EC180B18F0BE
:1050E00085F820D29FED770B53EC102B51EC180B69
:1050F00017F01FFF41EC1C0B9FED740B53EC102BB2
:1051000017F0BEFF41EC1B0B9FED6E0B53EC102B09
:1051100017F00FFF41EC1A0B53EC182B17F0B0FFF0
:1051200041EC180B1FE09FED670B53EC102B51EC7B
:10513000180B17F09FFF41EC1C0B9FED660B53EC17
:10514000102B17F09DFF41EC1B0B9FED5E0B53ECFA
:10515000102B17F0EEFE41EC1A0B53EC182B17F046
:105160008FFF41EC180BB0EE480AF0EE680ABDEC78
:105170000A8B10BD10B52DED068BB0EE408AF0EE17
:10518000608A01249FED550B53EC102B51EC180B4A
:1051900018F044F80AD89FED510B53EC102B51EC4A
:1051A000180B17F067FF41EC180BA41E204617F0F0
:1051B000D9FF41EC190BB0EE480AF0EE680AFFF790
:1051C00047FFB0EE40AAF0EE60AA53EC192B51EC69
:1051D0001A0B17F055FF41EC100BBDEC068B10BD00
:1051E00010B52DED088BB0EE408AF0EE608A0124F8
:1051F0009FED3C0B53EC102B51EC180B17F099FE64
:1052000041EC180B9FED350B53EC102B51EC180BA8
:1052100018F004F80AD8A41E9FED300B53EC102BA5
:1052200051EC180B17F026FF41EC180B204617F035
:1052300099FF41EC1A0BB0EE480AF0EE680AFFF74E
:1052400099FFB0EE40BAF0EE60BA53EC1A2B51EC75
:105250001B0B17F015FF41EC190B17F0F7FF00EED1
:10526000100ABDEC088B10BDF0EE401AF4EEE01A07
:10527000F1EE10FA3ADD31EEC10AB4EEE00AF1EED9
:1052800010FA3CD2B0EE600A39E0000000000000E5
:105290008180803B000080431CD60108DB0F494021
:1052A000DB0FC93FDB0FC9BFDF59375F00000000CC
:1052B00000000000000000602FF0D93F00000060F7
:1052C000305FF43F000000000000F03F000000C02D
:1052D000CCCCCCBF000000C0CCCCCC3FF1D4C85368
:1052E000FB210940F1D4C853FB21F93F31EE810A7B
:1052F000B4EEE00AF1EE10FA01DDB0EE600A70479C
:10530000F0EE401AB1EE412A32EE202AB4EEE12A44
:10531000F1EE10FA09D231EE202AB4EEE12AF1EED4
:1053200010FA02DDB0EE600A01E0B0EE610A7047EB
:10533000F0EE402AB5EEC01AF1EE10FA02DDB0EE42
:10534000410A01E0B1EE410AB6EE003A22EE033A1C
:1053500023EE213AB4EEC30AF1EE10FA06D29FED25
:10536000D40A20EE800AF0EE400A4DE0B5EEC01AF5
:10537000F1EE10FA02DDB0EE410A01E0B1EE410AB1
:1053800022EE213AB4EEC30AF1EE10FA06D29FEDF6
:10539000C90A20EE800AF0EE400A35E0B5EEC01AE8
:1053A000F1EE10FA02DDB0EE410A01E0B1EE410A81
:1053B000B4EEE10AF1EE10FA06D2B6EE000A20EEE3
:1053C000800AF0EE400A1FE0B5EEC01AF1EE10FAC6
:1053D00002DDB0EE410A01E0B1EE410AB0EE003A62
:1053E00021EE833AB4EEC30AF1EE10FA06D29FED35
:1053F000B20A20EE800AF0EE400A05E09FEDAF0A07
:1054000020EE800AF0EE400A9FEDAD0A20EE800A01
:1054100020EE223AF7EE003A83EE830AB7EE003A26
:1054200030EE030AF7EE003A83EE803A90ED000A80
:1054300071EE403A90ED000A03EE230A80ED000A77
:1054400090ED000AB1EE423A23EE213AB4EEC30ADF
:10545000F1EE10FA04D8B1EE420A20EE210A0DE076
:1054600090ED000A22EE213AB4EEC30AF1EE10FAF2
:1054700002DD22EE210A01E090ED000A80ED000A33
:1054800090ED000A31EE400A704710B52DED028B09
:10549000B0EE408AF0EE608A9FED8A0B53EC102B41
:1054A00051EC180B17F0BAFE0CD29FED880B53ECA1
:1054B000102B51EC180B17F0DDFD41EC100BBDEC7F
:1054C000028B10BD9FED830B53EC102B51EC180B8E
:1054D00017F08CFE0AD29FED7D0B53EC102B51EC94
:1054E000180B17F026FD41EC100BE8E7B0EE480A68
:1054F000F0EE680AE3E710B504460B46F0EE403ADA
:10550000D4ED000A60EEA00A93ED001AD3ED001A64
:1055100041EE210AB0EE600AFFF790FDB0EE403A8E
:10552000B5EEC03AF1EE10FA02D81FEDA80A09E074
:10553000B4EEE33AF1EE10FA02DDB0EE630A01E0F8
:10554000B0EE430AB0EE404AB5EEC03AF1EE10FAC2
:1055500006D11FEDB20A82ED010A82ED000A0FE0CA
:1055600084EE030AD4ED000A20EE200A82ED000A40
:1055700084EE030AD3ED000A20EE200A82ED010A30
:1055800010BDF0EE400A0B7802EB8303C3ED000A76
:105590000B785B1C0B700B78834201DB00230B70D4
:1055A0000B7802EB830393ED000A704700B50246C7
:1055B000B0EE403A0B46F7EE000A43EE430AB0EE77
:1055C000600AFFF73BFDD2ED000A20EE200AD2ED83
:1055D000010A00EEC30A83ED000AF7EE000A43EE6B
:1055E000430AB0EE600AFFF729FDD2ED010A20EE72
:1055F000200AD2ED000A00EE830A83ED010A00BD05
:1056000090ED000AD1ED010A20EE200AD0ED010A4A
:1056100091ED001A00EEC10A704790ED000AD1ED3D
:10562000000A20EE200AD0ED010A91ED011A00EEE9
:10563000810A704790ED010AD1ED020A20EE200A9E
:10564000D0ED020A91ED011A00EEC10A82ED000AC6
:1056500090ED020AD1ED000A20EE200AD0ED000AFA
:1056600091ED021A00EEC10A82ED010A90ED000AE6
:10567000D1ED010A20EE200AD0ED010A91ED001AC9
:1056800000EEC10A82ED020A704790ED000AD1EDEA
:10569000000A20EE200AD0ED010A91ED011A00EE79
:1056A000810AD0ED020A91ED021A00EE810A7047DC
:1056B0009A99993FCDCC4C3FCDCC4C3ECDCCCC3DF6
:1056C000C3F5C840000000000080664000000000F4
:1056D0000080764000000000008066C02DE9F041A7
:1056E0002DED028B04460F4616461D460CB90020D0
:1056F00003E04FF47A7090FBF4F000EE100AF8EE3D
:10570000C08AB1EE040A88EE808A8848056088481D
:1057100006608848D0ED0C0A90ED0C1A9FED860AC1
:1057200000EEC10AF1EE040A20EE200AB5EEC00A2E
:10573000F1EE10FA02D89FED810A23E07D48D0ED0A
:105740000C0A90ED0C1A9FED7C0A00EEC10AF1EEF6
:10575000040A20EE200AF7EE000AB4EEE00AF1EEA9
:1057600010FA02DDB7EE000A0CE07248D0ED0C0A28
:1057700090ED0C1A9FED700A00EEC10AF1EE040ADA
:1057800020EE200AF2EE040A20EE200A6C4880ED9A
:10579000000A6C480078401C6A4908700846007886
:1057A000052190FBF1F201FB1200664908700846E2
:1057B000007830BB5D48006863490968401A00EE14
:1057C000100AB8EEC00A20EE080ABDEEC00A5F4813
:1057D00080ED000A00685E490968401A00EE100A70
:1057E000B8EEC00A20EE080ABDEEC00A594880EDA6
:1057F000000A4E48006854490860544800685449FB
:1058000008609FED550A554880ED020A484890ED22
:10581000000AB8EEC00A514880ED000A4D4890EDEC
:10582000000AB8EEC00A4D4880ED010A9FED4C0A0F
:1058300080ED030A00EE904AF8EE600A9FED491AE7
:1058400060EE810AB0EE600AFEF70AF99FED460AA3
:10585000464880ED020A4148D0ED060AB0EE600AE3
:10586000374890ED001ADFED350AFFF7FDFC3F48A1
:1058700080ED000A354890ED000AB8EEC00A3B48BA
:1058800080ED010A9FED360A80ED030A00EE904A92
:10589000F8EE600A9FED331A60EE810AB0EE600AFE
:1058A000FEF723F99FED300A314880ED020A2F48B8
:1058B00090ED050A2E4880ED000A00EE105AB8EE71
:1058C000C00A80ED010A00EE904AF8EE600A9FEDF2
:1058D000251A60EE810AB0EE600AFEF706F9BDEC0B
:1058E000028BBDE8F0819FED150A1C4880ED060A89
:1058F0000F480068404200EE100AB8EEC00A174890
:1059000080ED050A9FED0D0A184880ED050A9FED10
:105910000B0A80ED040A9FED090A154880ED050A7F
:105920009FED060A80ED040A70470000680200201F
:10593000780200200C010020DBF97E3F000000000F
:10594000740200207C020020600200206C02002013
:105950006402002070020020CDCCCC3D98100020C5
:10596000000048436F12833ACDCCCC3EB4100020E7
:10597000CC100020B0EE403AB5EEC03AF1EE10FA8D
:1059800002D19FED430A03E0F7EE004A84EE830A5A
:10599000B0EE404A91ED010A31EE400A20EE040AD1
:1059A00081ED050A027842B991ED020A31EEC00A92
:1059B00020EE040A81ED030A03E091ED040A81ED73
:1059C000030A90ED030AD1ED054A20EE240AD0ED3A
:1059D000044A91ED035AF0EE403A44EEC53A31EEF6
:1059E000610A81ED000AD0ED024A91ED000AB1EEA4
:1059F000425AB4EEC50AF1EE10FA02D8B1EE420AEC
:105A00000BE091ED000AB4EEC20AF1EE10FA02DDED
:105A1000B0EE420A01E091ED000A64EE804A91ED99
:105A2000060A04EE830A81ED060A91ED060AF1EEFC
:105A3000624AB4EEE40AF1EE10FA02D8B1EE620A5C
:105A40000BE091ED060AB4EEE20AF1EE10FA02DD87
:105A5000B0EE620A01E091ED060A81ED060A90EDD2
:105A6000010AD1ED004A20EE240AD0ED054A04EEE9
:105A7000A00A30EE230AD1ED064A30EE240A81ED69
:105A8000090AC1ED021A81ED011A91ED090A704768
:105A90000000000010B50446204601F007F8FC485D
:105AA000407B48B1FA48007C58B1F948407D40B984
:105AB0000120F749487504E00020F6490880F449C0
:105AC0004875F348407D01287ED1F349D1F8EC10A8
:105AD00000EE101AF3EE040AB4EEE00AF1EE10FA4A
